{
  "_format": "hh-sol-artifact-1",
  "contractName": "WavePortal",
  "sourceName": "contracts/WavePortal.sol",
  "abi": [
    {
      "inputs": [],
      "stateMutability": "payable",
      "type": "constructor"
    },
    {
      "anonymous": false,
      "inputs": [
        {
          "indexed": true,
          "internalType": "address",
          "name": "from",
          "type": "address"
        },
        {
          "indexed": false,
          "internalType": "uint256",
          "name": "timestamp",
          "type": "uint256"
        },
        {
          "indexed": false,
          "internalType": "bool",
          "name": "wonPrize",
          "type": "bool"
        },
        {
          "indexed": false,
          "internalType": "string",
          "name": "message",
          "type": "string"
        }
      ],
      "name": "NewWave",
      "type": "event"
    },
    {
      "anonymous": false,
      "inputs": [
        {
          "indexed": true,
          "internalType": "address",
          "name": "previousOwner",
          "type": "address"
        },
        {
          "indexed": true,
          "internalType": "address",
          "name": "newOwner",
          "type": "address"
        }
      ],
      "name": "OwnershipTransferred",
      "type": "event"
    },
    {
      "anonymous": false,
      "inputs": [
        {
          "indexed": true,
          "internalType": "address",
          "name": "from",
          "type": "address"
        },
        {
          "indexed": false,
          "internalType": "uint256",
          "name": "timestamp",
          "type": "uint256"
        },
        {
          "indexed": false,
          "internalType": "string",
          "name": "message",
          "type": "string"
        }
      ],
      "name": "PrizeWon",
      "type": "event"
    },
    {
      "inputs": [],
      "name": "getAllWaves",
      "outputs": [
        {
          "components": [
            {
              "internalType": "address",
              "name": "waver",
              "type": "address"
            },
            {
              "internalType": "string",
              "name": "message",
              "type": "string"
            },
            {
              "internalType": "bool",
              "name": "wonPrize",
              "type": "bool"
            },
            {
              "internalType": "uint256",
              "name": "timestamp",
              "type": "uint256"
            }
          ],
          "internalType": "struct WavePortal.Wave[]",
          "name": "",
          "type": "tuple[]"
        }
      ],
      "stateMutability": "view",
      "type": "function"
    },
    {
      "inputs": [],
      "name": "getCooldownPeriod",
      "outputs": [
        {
          "internalType": "uint32",
          "name": "",
          "type": "uint32"
        }
      ],
      "stateMutability": "view",
      "type": "function"
    },
    {
      "inputs": [],
      "name": "getCooldownTimeLeft",
      "outputs": [
        {
          "internalType": "uint32",
          "name": "",
          "type": "uint32"
        }
      ],
      "stateMutability": "view",
      "type": "function"
    },
    {
      "inputs": [],
      "name": "getLastWaveTime",
      "outputs": [
        {
          "internalType": "uint32",
          "name": "",
          "type": "uint32"
        }
      ],
      "stateMutability": "view",
      "type": "function"
    },
    {
      "inputs": [
        {
          "internalType": "uint32",
          "name": "seedNumber",
          "type": "uint32"
        }
      ],
      "name": "getRandomNumbers",
      "outputs": [
        {
          "internalType": "uint32",
          "name": "",
          "type": "uint32"
        }
      ],
      "stateMutability": "view",
      "type": "function"
    },
    {
      "inputs": [],
      "name": "getTotalWaves",
      "outputs": [
        {
          "internalType": "uint256",
          "name": "",
          "type": "uint256"
        }
      ],
      "stateMutability": "view",
      "type": "function"
    },
    {
      "inputs": [],
      "name": "getTotalWavesLength",
      "outputs": [
        {
          "internalType": "uint32",
          "name": "",
          "type": "uint32"
        }
      ],
      "stateMutability": "view",
      "type": "function"
    },
    {
      "inputs": [],
      "name": "isInCooldown",
      "outputs": [
        {
          "internalType": "bool",
          "name": "",
          "type": "bool"
        }
      ],
      "stateMutability": "view",
      "type": "function"
    },
    {
      "inputs": [
        {
          "internalType": "address",
          "name": "",
          "type": "address"
        }
      ],
      "name": "lastWavedAt",
      "outputs": [
        {
          "internalType": "uint256",
          "name": "",
          "type": "uint256"
        }
      ],
      "stateMutability": "view",
      "type": "function"
    },
    {
      "inputs": [],
      "name": "owner",
      "outputs": [
        {
          "internalType": "address",
          "name": "",
          "type": "address"
        }
      ],
      "stateMutability": "view",
      "type": "function"
    },
    {
      "inputs": [],
      "name": "randomBool",
      "outputs": [
        {
          "internalType": "bool",
          "name": "",
          "type": "bool"
        }
      ],
      "stateMutability": "view",
      "type": "function"
    },
    {
      "inputs": [
        {
          "internalType": "uint32",
          "name": "randomSeed",
          "type": "uint32"
        }
      ],
      "name": "randomBoolExternSeed",
      "outputs": [
        {
          "internalType": "bool",
          "name": "",
          "type": "bool"
        }
      ],
      "stateMutability": "view",
      "type": "function"
    },
    {
      "inputs": [],
      "name": "renounceOwnership",
      "outputs": [],
      "stateMutability": "nonpayable",
      "type": "function"
    },
    {
      "inputs": [
        {
          "internalType": "uint32",
          "name": "_periodSecs",
          "type": "uint32"
        }
      ],
      "name": "setCooldownPeriod",
      "outputs": [],
      "stateMutability": "nonpayable",
      "type": "function"
    },
    {
      "inputs": [
        {
          "internalType": "address",
          "name": "newOwner",
          "type": "address"
        }
      ],
      "name": "transferOwnership",
      "outputs": [],
      "stateMutability": "nonpayable",
      "type": "function"
    },
    {
      "inputs": [
        {
          "internalType": "string",
          "name": "_message",
          "type": "string"
        }
      ],
      "name": "wave",
      "outputs": [],
      "stateMutability": "nonpayable",
      "type": "function"
    },
    {
      "stateMutability": "payable",
      "type": "receive"
    }
  ],
  "bytecode": "0x6080604052655af3107a4000600255601e600360006101000a81548163ffffffff021916908363ffffffff16021790555062000050620000446200011160201b60201c565b6200011960201b60201c565b6200009b6040518060400160405280601c81526020017f7468616e6b20796f752e206d6f737420636f6e73747275637469766500000000815250620001dd60201b62000ef71760201c565b60644442620000ab919062000415565b620000b79190620004b2565b6004819055506200010b6040518060400160405280600e81526020017f736565642073657420746f2025640000000000000000000000000000000000008152506004546200028060201b62000f901760201c565b62000559565b600033905090565b60008060009054906101000a900473ffffffffffffffffffffffffffffffffffffffff169050816000806101000a81548173ffffffffffffffffffffffffffffffffffffffff021916908373ffffffffffffffffffffffffffffffffffffffff1602179055508173ffffffffffffffffffffffffffffffffffffffff168173ffffffffffffffffffffffffffffffffffffffff167f8be0079c531659141344cd1fd0a4f28419497f9722a3daafe3b4186f6b6457e060405160405180910390a35050565b6200027d81604051602401620001f49190620003a1565b6040516020818303038152906040527f41304fac000000000000000000000000000000000000000000000000000000007bffffffffffffffffffffffffffffffffffffffffffffffffffffffff19166020820180517bffffffffffffffffffffffffffffffffffffffffffffffffffffffff83818316178352505050506200032660201b60201c565b50565b62000322828260405160240162000299929190620003c5565b6040516020818303038152906040527fb60e72cc000000000000000000000000000000000000000000000000000000007bffffffffffffffffffffffffffffffffffffffffffffffffffffffff19166020820180517bffffffffffffffffffffffffffffffffffffffffffffffffffffffff83818316178352505050506200032660201b60201c565b5050565b60008151905060006a636f6e736f6c652e6c6f679050602083016000808483855afa5050505050565b60006200035c82620003f9565b62000368818562000404565b93506200037a8185602086016200047c565b620003858162000548565b840191505092915050565b6200039b8162000472565b82525050565b60006020820190508181036000830152620003bd81846200034f565b905092915050565b60006040820190508181036000830152620003e181856200034f565b9050620003f2602083018462000390565b9392505050565b600081519050919050565b600082825260208201905092915050565b6000620004228262000472565b91506200042f8362000472565b9250827fffffffffffffffffffffffffffffffffffffffffffffffffffffffffffffffff03821115620004675762000466620004ea565b5b828201905092915050565b6000819050919050565b60005b838110156200049c5780820151818401526020810190506200047f565b83811115620004ac576000848401525b50505050565b6000620004bf8262000472565b9150620004cc8362000472565b925082620004df57620004de62000519565b5b828206905092915050565b7f4e487b7100000000000000000000000000000000000000000000000000000000600052601160045260246000fd5b7f4e487b7100000000000000000000000000000000000000000000000000000000600052601260045260246000fd5b6000601f19601f8301169050919050565b61204680620005696000396000f3fe6080604052600436106100f75760003560e01c8063a42a46631161008a578063e1534d6111610059578063e1534d6114610313578063ee05283a14610350578063f2fde38b1461037b578063fbc3a731146103a4576100fe565b8063a42a466314610257578063a4b4661d14610294578063bd43a908146102bd578063cdc126bd146102e8576100fe565b80637defd5b0116100c65780637defd5b0146101ab5780638da5cb5b146101d657806393e8cdb9146102015780639a2cdc081461022c576100fe565b8063218cc7a314610103578063449d46c014610140578063715018a614610169578063782c20f514610180576100fe565b366100fe57005b600080fd5b34801561010f57600080fd5b5061012a60048036038101906101259190611512565b6103cf565b6040516101379190611c19565b60405180910390f35b34801561014c57600080fd5b50610167600480360381019061016291906114d1565b610419565b005b34801561017557600080fd5b5061017e6108c6565b005b34801561018c57600080fd5b506101956108da565b6040516101a29190611c19565b60405180910390f35b3480156101b757600080fd5b506101c06108e7565b6040516101cd9190611c19565b60405180910390f35b3480156101e257600080fd5b506101eb610958565b6040516101f891906119c5565b60405180910390f35b34801561020d57600080fd5b50610216610981565b6040516102239190611c19565b60405180910390f35b34801561023857600080fd5b50610241610a82565b60405161024e9190611b64565b60405180910390f35b34801561026357600080fd5b5061027e600480360381019061027991906114a8565b610acd565b60405161028b9190611b64565b60405180910390f35b3480156102a057600080fd5b506102bb60048036038101906102b69190611512565b610ae5565b005b3480156102c957600080fd5b506102d2610b39565b6040516102df91906119e0565b60405180910390f35b3480156102f457600080fd5b506102fd610ca5565b60405161030a9190611a02565b60405180910390f35b34801561031f57600080fd5b5061033a60048036038101906103359190611512565b610ce3565b6040516103479190611a02565b60405180910390f35b34801561035c57600080fd5b50610365610d27565b6040516103729190611a02565b60405180910390f35b34801561038757600080fd5b506103a2600480360381019061039d91906114a8565b610e2c565b005b3480156103b057600080fd5b506103b9610eb0565b6040516103c69190611c19565b60405180910390f35b600080824442436040516020016103e99493929190611977565b6040516020818303038152906040528051906020012060001c9050600a816104119190611eb6565b915050919050565b426001600360009054906101000a900463ffffffff166104399190611d5c565b63ffffffff16600660003373ffffffffffffffffffffffffffffffffffffffff1673ffffffffffffffffffffffffffffffffffffffff168152602001908152602001600020546104899190611d06565b106104c9576040517f08c379a00000000000000000000000000000000000000000000000000000000081526004016104c090611b44565b60405180910390fd5b42600660003373ffffffffffffffffffffffffffffffffffffffff1673ffffffffffffffffffffffffffffffffffffffff16815260200190815260200160002081905550600180600082825461051f9190611d06565b925050819055506105666040518060400160405280601681526020017f257320776176656420772f206d65737361676520257300000000000000000000815250338361102c565b606460045442446105779190611d06565b6105819190611d06565b61058b9190611eb6565b6004819055506105d26040518060400160405280601681526020017f52616e646f6d20232067656e6572617465643a20256400000000000000000000815250600454610f90565b600060326004541161077c5761061d6040518060400160405280600781526020017f257320776f6e2100000000000000000000000000000000000000000000000000815250336110cb565b476002541161072c573373ffffffffffffffffffffffffffffffffffffffff167f14010cae8a240dc47291455df5acd88c4a97b2cc150be75a8035dcd7e4188d534260405161066c9190611bbd565b60405180910390a260003373ffffffffffffffffffffffffffffffffffffffff1660025460405161069c90611962565b60006040518083038185875af1925050503d80600081146106d9576040519150601f19603f3d011682016040523d82523d6000602084013e6106de565b606091505b5050905080610722576040517f08c379a000000000000000000000000000000000000000000000000000000000815260040161071990611b04565b60405180910390fd5b600191505061077b565b3373ffffffffffffffffffffffffffffffffffffffff167f14010cae8a240dc47291455df5acd88c4a97b2cc150be75a8035dcd7e4188d53426040516107729190611beb565b60405180910390a25b5b600560405180608001604052803373ffffffffffffffffffffffffffffffffffffffff168152602001848152602001831515815260200142815250908060018154018082558091505060019003906000526020600020906004020160009091909190915060008201518160000160006101000a81548173ffffffffffffffffffffffffffffffffffffffff021916908373ffffffffffffffffffffffffffffffffffffffff1602179055506020820151816001019080519060200190610843929190611373565b5060408201518160020160006101000a81548160ff0219169083151502179055506060820151816003015550503373ffffffffffffffffffffffffffffffffffffffff167f79e3b9de909c859ac900ea2151005dcbe6e4a37b7d6970fdc1fd22541de074d34283856040516108ba93929190611b7f565b60405180910390a25050565b6108ce611167565b6108d860006111e5565b565b6000600580549050905090565b60006109406040518060400160405280601d81526020017f636f6f6c646f776e20706572696f64206973202564207365636f6e6473000000815250600360009054906101000a900463ffffffff1663ffffffff16610f90565b600360009054906101000a900463ffffffff16905090565b60008060009054906101000a900473ffffffffffffffffffffffffffffffffffffffff16905090565b60006001600360009054906101000a900463ffffffff166109a29190611d5c565b63ffffffff16600660003373ffffffffffffffffffffffffffffffffffffffff1673ffffffffffffffffffffffffffffffffffffffff168152602001908152602001600020546109f29190611d06565b421115610a025760009050610a7f565b426001600360009054906101000a900463ffffffff16610a229190611d5c565b63ffffffff16600660003373ffffffffffffffffffffffffffffffffffffffff1673ffffffffffffffffffffffffffffffffffffffff16815260200190815260200160002054610a729190611d06565b610a7c9190611d9a565b90505b90565b6000610ac56040518060400160405280601781526020017f5765206861766520256420746f74616c20776176657321000000000000000000815250600154610f90565b600154905090565b60066020528060005260406000206000915090505481565b610aed611167565b80600360006101000a81548163ffffffff021916908363ffffffff160217905550610b36604051806060016040528060218152602001611ff0602191398263ffffffff16610f90565b50565b60606005805480602002602001604051908101604052809291908181526020016000905b82821015610c9c57838290600052602060002090600402016040518060800160405290816000820160009054906101000a900473ffffffffffffffffffffffffffffffffffffffff1673ffffffffffffffffffffffffffffffffffffffff1673ffffffffffffffffffffffffffffffffffffffff168152602001600182018054610be690611e68565b80601f0160208091040260200160405190810160405280929190818152602001828054610c1290611e68565b8015610c5f5780601f10610c3457610100808354040283529160200191610c5f565b820191906000526020600020905b815481529060010190602001808311610c4257829003601f168201915b505050505081526020016002820160009054906101000a900460ff1615151515815260200160038201548152505081526020019060010190610b5d565b50505050905090565b60008060646004544244610cb99190611d06565b610cc39190611d06565b610ccd9190611eb6565b9050610cd8816112a9565b603281111591505090565b60008060648363ffffffff164244610cfb9190611d06565b610d059190611d06565b610d0f9190611eb6565b9050610d1a816112a9565b6032811115915050919050565b6000426001600360009054906101000a900463ffffffff16610d499190611d5c565b63ffffffff16600660003373ffffffffffffffffffffffffffffffffffffffff1673ffffffffffffffffffffffffffffffffffffffff16815260200190815260200160002054610d999190611d06565b1015610de657610ddd6040518060400160405280601681526020017f53656e646572206e6f7420696e20636f6f6c646f776e00000000000000000000815250610ef7565b60009050610e29565b610e246040518060400160405280601f81526020017f53656e646572207374696c6c20696e20636f6f6c646f776e20706572696f6400815250610ef7565b600190505b90565b610e34611167565b600073ffffffffffffffffffffffffffffffffffffffff168173ffffffffffffffffffffffffffffffffffffffff161415610ea4576040517f08c379a0000000000000000000000000000000000000000000000000000000008152600401610e9b90611ae4565b60405180910390fd5b610ead816111e5565b50565b6000600660003373ffffffffffffffffffffffffffffffffffffffff1673ffffffffffffffffffffffffffffffffffffffff16815260200190815260200160002054905090565b610f8d81604051602401610f0b9190611a1d565b6040516020818303038152906040527f41304fac000000000000000000000000000000000000000000000000000000007bffffffffffffffffffffffffffffffffffffffffffffffffffffffff19166020820180517bffffffffffffffffffffffffffffffffffffffffffffffffffffffff8381831617835250505050611342565b50565b6110288282604051602401610fa6929190611ab4565b6040516020818303038152906040527fb60e72cc000000000000000000000000000000000000000000000000000000007bffffffffffffffffffffffffffffffffffffffffffffffffffffffff19166020820180517bffffffffffffffffffffffffffffffffffffffffffffffffffffffff8381831617835250505050611342565b5050565b6110c683838360405160240161104493929190611a6f565b6040516020818303038152906040527fe0e9ad4f000000000000000000000000000000000000000000000000000000007bffffffffffffffffffffffffffffffffffffffffffffffffffffffff19166020820180517bffffffffffffffffffffffffffffffffffffffffffffffffffffffff8381831617835250505050611342565b505050565b61116382826040516024016110e1929190611a3f565b6040516020818303038152906040527f319af333000000000000000000000000000000000000000000000000000000007bffffffffffffffffffffffffffffffffffffffffffffffffffffffff19166020820180517bffffffffffffffffffffffffffffffffffffffffffffffffffffffff8381831617835250505050611342565b5050565b61116f61136b565b73ffffffffffffffffffffffffffffffffffffffff1661118d610958565b73ffffffffffffffffffffffffffffffffffffffff16146111e3576040517f08c379a00000000000000000000000000000000000000000000000000000000081526004016111da90611b24565b60405180910390fd5b565b60008060009054906101000a900473ffffffffffffffffffffffffffffffffffffffff169050816000806101000a81548173ffffffffffffffffffffffffffffffffffffffff021916908373ffffffffffffffffffffffffffffffffffffffff1602179055508173ffffffffffffffffffffffffffffffffffffffff168173ffffffffffffffffffffffffffffffffffffffff167f8be0079c531659141344cd1fd0a4f28419497f9722a3daafe3b4186f6b6457e060405160405180910390a35050565b61133f816040516024016112bd9190611b64565b6040516020818303038152906040527ff82c50f1000000000000000000000000000000000000000000000000000000007bffffffffffffffffffffffffffffffffffffffffffffffffffffffff19166020820180517bffffffffffffffffffffffffffffffffffffffffffffffffffffffff8381831617835250505050611342565b50565b60008151905060006a636f6e736f6c652e6c6f679050602083016000808483855afa5050505050565b600033905090565b82805461137f90611e68565b90600052602060002090601f0160209004810192826113a157600085556113e8565b82601f106113ba57805160ff19168380011785556113e8565b828001600101855582156113e8579182015b828111156113e75782518255916020019190600101906113cc565b5b5090506113f591906113f9565b5090565b5b808211156114125760008160009055506001016113fa565b5090565b600061142961142484611c65565b611c34565b90508281526020810184848401111561144157600080fd5b61144c848285611e26565b509392505050565b60008135905061146381611fc1565b92915050565b600082601f83011261147a57600080fd5b813561148a848260208601611416565b91505092915050565b6000813590506114a281611fd8565b92915050565b6000602082840312156114ba57600080fd5b60006114c884828501611454565b91505092915050565b6000602082840312156114e357600080fd5b600082013567ffffffffffffffff8111156114fd57600080fd5b61150984828501611469565b91505092915050565b60006020828403121561152457600080fd5b600061153284828501611493565b91505092915050565b600061154783836118a4565b905092915050565b61155881611dce565b82525050565b61156781611dce565b82525050565b600061157882611ca5565b6115828185611cc8565b93508360208202850161159485611c95565b8060005b858110156115d057848403895281516115b1858261153b565b94506115bc83611cbb565b925060208a01995050600181019050611598565b50829750879550505050505092915050565b6115eb81611de0565b82525050565b6115fa81611de0565b82525050565b600061160b82611cb0565b6116158185611ce4565b9350611625818560208601611e35565b61162e81611fa3565b840191505092915050565b600061164482611cb0565b61164e8185611cf5565b935061165e818560208601611e35565b61166781611fa3565b840191505092915050565b600061167f602683611cf5565b91507f4f776e61626c653a206e6577206f776e657220697320746865207a65726f206160008301527f64647265737300000000000000000000000000000000000000000000000000006020830152604082019050919050565b60006116e5602783611cf5565b91507f4661696c656420746f207769746864726177206d6f6e65792066726f6d20636f60008301527f6e74726163742e000000000000000000000000000000000000000000000000006020830152604082019050919050565b600061174b602083611cf5565b91507f4f776e61626c653a2063616c6c6572206973206e6f7420746865206f776e65726000830152602082019050919050565b600061178b600a83611cf5565b91507f5072697a6520776f6e21000000000000000000000000000000000000000000006000830152602082019050919050565b60006117cb602e83611cf5565b91507f4e6f7420736f20666173742120576169742061206d696e757465206265666f7260008301527f6520747279696e6720616761696e0000000000000000000000000000000000006020830152604082019050919050565b6000611831600083611cd9565b9150600082019050919050565b600061184b602c83611cf5565b91507f596f7520776f756c64206861766520776f6e20627574207072697a6520706f7460008301527f206861732072756e206f757400000000000000000000000000000000000000006020830152604082019050919050565b60006080830160008301516118bc600086018261154f565b50602083015184820360208601526118d48282611600565b91505060408301516118e960408601826115e2565b5060608301516118fc6060860182611907565b508091505092915050565b61191081611e0c565b82525050565b61191f81611e0c565b82525050565b61193661193182611e0c565b611e9a565b82525050565b61194581611e16565b82525050565b61195c61195782611e16565b611ea4565b82525050565b600061196d82611824565b9150819050919050565b6000611983828761194b565b6004820191506119938286611925565b6020820191506119a38285611925565b6020820191506119b38284611925565b60208201915081905095945050505050565b60006020820190506119da600083018461155e565b92915050565b600060208201905081810360008301526119fa818461156d565b905092915050565b6000602082019050611a1760008301846115f1565b92915050565b60006020820190508181036000830152611a378184611639565b905092915050565b60006040820190508181036000830152611a598185611639565b9050611a68602083018461155e565b9392505050565b60006060820190508181036000830152611a898186611639565b9050611a98602083018561155e565b8181036040830152611aaa8184611639565b9050949350505050565b60006040820190508181036000830152611ace8185611639565b9050611add6020830184611916565b9392505050565b60006020820190508181036000830152611afd81611672565b9050919050565b60006020820190508181036000830152611b1d816116d8565b9050919050565b60006020820190508181036000830152611b3d8161173e565b9050919050565b60006020820190508181036000830152611b5d816117be565b9050919050565b6000602082019050611b796000830184611916565b92915050565b6000606082019050611b946000830186611916565b611ba160208301856115f1565b8181036040830152611bb38184611639565b9050949350505050565b6000604082019050611bd26000830184611916565b8181036020830152611be38161177e565b905092915050565b6000604082019050611c006000830184611916565b8181036020830152611c118161183e565b905092915050565b6000602082019050611c2e600083018461193c565b92915050565b6000604051905081810181811067ffffffffffffffff82111715611c5b57611c5a611f74565b5b8060405250919050565b600067ffffffffffffffff821115611c8057611c7f611f74565b5b601f19601f8301169050602081019050919050565b6000819050602082019050919050565b600081519050919050565b600081519050919050565b6000602082019050919050565b600082825260208201905092915050565b600081905092915050565b600082825260208201905092915050565b600082825260208201905092915050565b6000611d1182611e0c565b9150611d1c83611e0c565b9250827fffffffffffffffffffffffffffffffffffffffffffffffffffffffffffffffff03821115611d5157611d50611ee7565b5b828201905092915050565b6000611d6782611e16565b9150611d7283611e16565b92508163ffffffff0483118215151615611d8f57611d8e611ee7565b5b828202905092915050565b6000611da582611e0c565b9150611db083611e0c565b925082821015611dc357611dc2611ee7565b5b828203905092915050565b6000611dd982611dec565b9050919050565b60008115159050919050565b600073ffffffffffffffffffffffffffffffffffffffff82169050919050565b6000819050919050565b600063ffffffff82169050919050565b82818337600083830152505050565b60005b83811015611e53578082015181840152602081019050611e38565b83811115611e62576000848401525b50505050565b60006002820490506001821680611e8057607f821691505b60208210811415611e9457611e93611f45565b5b50919050565b6000819050919050565b6000611eaf82611fb4565b9050919050565b6000611ec182611e0c565b9150611ecc83611e0c565b925082611edc57611edb611f16565b5b828206905092915050565b7f4e487b7100000000000000000000000000000000000000000000000000000000600052601160045260246000fd5b7f4e487b7100000000000000000000000000000000000000000000000000000000600052601260045260246000fd5b7f4e487b7100000000000000000000000000000000000000000000000000000000600052602260045260246000fd5b7f4e487b7100000000000000000000000000000000000000000000000000000000600052604160045260246000fd5b6000601f19601f8301169050919050565b60008160e01b9050919050565b611fca81611dce565b8114611fd557600080fd5b50565b611fe181611e16565b8114611fec57600080fd5b5056fe73657420636f6f6c646f776e20706572696f6420746f202564207365636f6e6473a26469706673582212204b5b15a72f82115d0847fdffea8323f2bd82665166f865301d10e438bd6147e764736f6c63430008000033",
  "linkReferences": {},
  "deployedLinkReferences": {}
}