{
  "_format": "hh-sol-artifact-1",
  "contractName": "WavePortal",
  "sourceName": "contracts/WavePortal.sol",
  "abi": [
    {
      "inputs": [],
      "stateMutability": "payable",
      "type": "constructor"
    },
    {
      "anonymous": false,
      "inputs": [
        {
          "indexed": true,
          "internalType": "address",
          "name": "from",
          "type": "address"
        },
        {
          "indexed": false,
          "internalType": "uint256",
          "name": "timestamp",
          "type": "uint256"
        },
        {
          "indexed": false,
          "internalType": "string",
          "name": "message",
          "type": "string"
        }
      ],
      "name": "NewWave",
      "type": "event"
    },
    {
      "anonymous": false,
      "inputs": [
        {
          "indexed": true,
          "internalType": "address",
          "name": "previousOwner",
          "type": "address"
        },
        {
          "indexed": true,
          "internalType": "address",
          "name": "newOwner",
          "type": "address"
        }
      ],
      "name": "OwnershipTransferred",
      "type": "event"
    },
    {
      "anonymous": false,
      "inputs": [
        {
          "indexed": true,
          "internalType": "address",
          "name": "from",
          "type": "address"
        },
        {
          "indexed": false,
          "internalType": "uint256",
          "name": "timestamp",
          "type": "uint256"
        },
        {
          "indexed": false,
          "internalType": "string",
          "name": "message",
          "type": "string"
        }
      ],
      "name": "PrizeWon",
      "type": "event"
    },
    {
      "inputs": [],
      "name": "getAllWaves",
      "outputs": [
        {
          "components": [
            {
              "internalType": "address",
              "name": "waver",
              "type": "address"
            },
            {
              "internalType": "string",
              "name": "message",
              "type": "string"
            },
            {
              "internalType": "uint256",
              "name": "timestamp",
              "type": "uint256"
            }
          ],
          "internalType": "struct WavePortal.Wave[]",
          "name": "",
          "type": "tuple[]"
        }
      ],
      "stateMutability": "view",
      "type": "function"
    },
    {
      "inputs": [],
      "name": "getCooldownPeriod",
      "outputs": [
        {
          "internalType": "uint32",
          "name": "",
          "type": "uint32"
        }
      ],
      "stateMutability": "view",
      "type": "function"
    },
    {
      "inputs": [],
      "name": "getCooldownTimeLeft",
      "outputs": [
        {
          "internalType": "uint32",
          "name": "",
          "type": "uint32"
        }
      ],
      "stateMutability": "view",
      "type": "function"
    },
    {
      "inputs": [],
      "name": "getLastWaveTime",
      "outputs": [
        {
          "internalType": "uint32",
          "name": "",
          "type": "uint32"
        }
      ],
      "stateMutability": "view",
      "type": "function"
    },
    {
      "inputs": [
        {
          "internalType": "uint32",
          "name": "seedNumber",
          "type": "uint32"
        }
      ],
      "name": "getRandomNumbers",
      "outputs": [
        {
          "internalType": "uint32",
          "name": "",
          "type": "uint32"
        }
      ],
      "stateMutability": "view",
      "type": "function"
    },
    {
      "inputs": [],
      "name": "getTotalWaves",
      "outputs": [
        {
          "internalType": "uint256",
          "name": "",
          "type": "uint256"
        }
      ],
      "stateMutability": "view",
      "type": "function"
    },
    {
      "inputs": [],
      "name": "getTotalWavesLength",
      "outputs": [
        {
          "internalType": "uint32",
          "name": "",
          "type": "uint32"
        }
      ],
      "stateMutability": "view",
      "type": "function"
    },
    {
      "inputs": [],
      "name": "isInCooldown",
      "outputs": [
        {
          "internalType": "bool",
          "name": "",
          "type": "bool"
        }
      ],
      "stateMutability": "view",
      "type": "function"
    },
    {
      "inputs": [
        {
          "internalType": "address",
          "name": "",
          "type": "address"
        }
      ],
      "name": "lastWavedAt",
      "outputs": [
        {
          "internalType": "uint256",
          "name": "",
          "type": "uint256"
        }
      ],
      "stateMutability": "view",
      "type": "function"
    },
    {
      "inputs": [],
      "name": "owner",
      "outputs": [
        {
          "internalType": "address",
          "name": "",
          "type": "address"
        }
      ],
      "stateMutability": "view",
      "type": "function"
    },
    {
      "inputs": [],
      "name": "randomBool",
      "outputs": [
        {
          "internalType": "bool",
          "name": "",
          "type": "bool"
        }
      ],
      "stateMutability": "view",
      "type": "function"
    },
    {
      "inputs": [
        {
          "internalType": "uint32",
          "name": "randomSeed",
          "type": "uint32"
        }
      ],
      "name": "randomBoolExternSeed",
      "outputs": [
        {
          "internalType": "bool",
          "name": "",
          "type": "bool"
        }
      ],
      "stateMutability": "view",
      "type": "function"
    },
    {
      "inputs": [],
      "name": "renounceOwnership",
      "outputs": [],
      "stateMutability": "nonpayable",
      "type": "function"
    },
    {
      "inputs": [
        {
          "internalType": "uint32",
          "name": "_periodSecs",
          "type": "uint32"
        }
      ],
      "name": "setCooldownPeriod",
      "outputs": [],
      "stateMutability": "nonpayable",
      "type": "function"
    },
    {
      "inputs": [
        {
          "internalType": "address",
          "name": "newOwner",
          "type": "address"
        }
      ],
      "name": "transferOwnership",
      "outputs": [],
      "stateMutability": "nonpayable",
      "type": "function"
    },
    {
      "inputs": [
        {
          "internalType": "string",
          "name": "_message",
          "type": "string"
        }
      ],
      "name": "wave",
      "outputs": [],
      "stateMutability": "nonpayable",
      "type": "function"
    }
  ],
  "bytecode": "0x6080604052655af3107a4000600255601e600360006101000a81548163ffffffff021916908363ffffffff16021790555062000050620000446200011160201b60201c565b6200011960201b60201c565b6200009b6040518060400160405280601c81526020017f7468616e6b20796f752e206d6f737420636f6e73747275637469766500000000815250620001dd60201b62000f7e1760201c565b60644442620000ab919062000415565b620000b79190620004b2565b6004819055506200010b6040518060400160405280600e81526020017f736565642073657420746f2025640000000000000000000000000000000000008152506004546200028060201b620010171760201c565b62000559565b600033905090565b60008060009054906101000a900473ffffffffffffffffffffffffffffffffffffffff169050816000806101000a81548173ffffffffffffffffffffffffffffffffffffffff021916908373ffffffffffffffffffffffffffffffffffffffff1602179055508173ffffffffffffffffffffffffffffffffffffffff168173ffffffffffffffffffffffffffffffffffffffff167f8be0079c531659141344cd1fd0a4f28419497f9722a3daafe3b4186f6b6457e060405160405180910390a35050565b6200027d81604051602401620001f49190620003a1565b6040516020818303038152906040527f41304fac000000000000000000000000000000000000000000000000000000007bffffffffffffffffffffffffffffffffffffffffffffffffffffffff19166020820180517bffffffffffffffffffffffffffffffffffffffffffffffffffffffff83818316178352505050506200032660201b60201c565b50565b62000322828260405160240162000299929190620003c5565b6040516020818303038152906040527f9710a9d0000000000000000000000000000000000000000000000000000000007bffffffffffffffffffffffffffffffffffffffffffffffffffffffff19166020820180517bffffffffffffffffffffffffffffffffffffffffffffffffffffffff83818316178352505050506200032660201b60201c565b5050565b60008151905060006a636f6e736f6c652e6c6f679050602083016000808483855afa5050505050565b60006200035c82620003f9565b62000368818562000404565b93506200037a8185602086016200047c565b620003858162000548565b840191505092915050565b6200039b8162000472565b82525050565b60006020820190508181036000830152620003bd81846200034f565b905092915050565b60006040820190508181036000830152620003e181856200034f565b9050620003f2602083018462000390565b9392505050565b600081519050919050565b600082825260208201905092915050565b6000620004228262000472565b91506200042f8362000472565b9250827fffffffffffffffffffffffffffffffffffffffffffffffffffffffffffffffff03821115620004675762000466620004ea565b5b828201905092915050565b6000819050919050565b60005b838110156200049c5780820151818401526020810190506200047f565b83811115620004ac576000848401525b50505050565b6000620004bf8262000472565b9150620004cc8362000472565b925082620004df57620004de62000519565b5b828206905092915050565b7f4e487b7100000000000000000000000000000000000000000000000000000000600052601160045260246000fd5b7f4e487b7100000000000000000000000000000000000000000000000000000000600052601260045260246000fd5b6000601f19601f8301169050919050565b6120a580620005696000396000f3fe608060405234801561001057600080fd5b50600436106101005760003560e01c8063a42a466311610097578063e1534d6111610066578063e1534d6114610279578063ee05283a146102a9578063f2fde38b146102c7578063fbc3a731146102e357610100565b8063a42a4663146101f1578063a4b4661d14610221578063bd43a9081461023d578063cdc126bd1461025b57610100565b80637defd5b0116100d35780637defd5b0146101795780638da5cb5b1461019757806393e8cdb9146101b55780639a2cdc08146101d357610100565b8063218cc7a314610105578063449d46c014610135578063715018a614610151578063782c20f51461015b575b600080fd5b61011f600480360381019061011a919061151b565b610301565b60405161012c9190611c78565b60405180910390f35b61014f600480360381019061014a91906114da565b61034b565b005b61015961080c565b005b610163610894565b6040516101709190611c78565b60405180910390f35b6101816108a1565b60405161018e9190611c78565b60405180910390f35b61019f610912565b6040516101ac9190611a12565b60405180910390f35b6101bd61093b565b6040516101ca9190611c78565b60405180910390f35b6101db610a3c565b6040516101e89190611bd1565b60405180910390f35b61020b600480360381019061020691906114b1565b610a87565b6040516102189190611bd1565b60405180910390f35b61023b6004803603810190610236919061151b565b610a9f565b005b610245610b67565b6040516102529190611a2d565b60405180910390f35b610263610cb8565b6040516102709190611a4f565b60405180910390f35b610293600480360381019061028e919061151b565b610cf6565b6040516102a09190611a4f565b60405180910390f35b6102b1610d3a565b6040516102be9190611a4f565b60405180910390f35b6102e160048036038101906102dc91906114b1565b610e3f565b005b6102eb610f37565b6040516102f89190611c78565b60405180910390f35b6000808244424360405160200161031b94939291906119c4565b6040516020818303038152906040528051906020012060001c9050600a816103439190611f15565b915050919050565b426001600360009054906101000a900463ffffffff1661036b9190611dbb565b63ffffffff16600660003373ffffffffffffffffffffffffffffffffffffffff1673ffffffffffffffffffffffffffffffffffffffff168152602001908152602001600020546103bb9190611d65565b106103fb576040517f08c379a00000000000000000000000000000000000000000000000000000000081526004016103f290611bb1565b60405180910390fd5b42600660003373ffffffffffffffffffffffffffffffffffffffff1673ffffffffffffffffffffffffffffffffffffffff1681526020019081526020016000208190555060018060008282546104519190611d65565b925050819055506104986040518060400160405280601681526020017f257320776176656420772f206d6573736167652025730000000000000000000081525033836110b3565b600560405180606001604052803373ffffffffffffffffffffffffffffffffffffffff16815260200183815260200142815250908060018154018082558091505060019003906000526020600020906003020160009091909190915060008201518160000160006101000a81548173ffffffffffffffffffffffffffffffffffffffff021916908373ffffffffffffffffffffffffffffffffffffffff160217905550602082015181600101908051906020019061055792919061137c565b50604082015181600201555050606460045442446105759190611d65565b61057f9190611d65565b6105899190611f15565b6004819055506105d06040518060400160405280601681526020017f52616e646f6d20232067656e6572617465643a20256400000000000000000000815250600454611017565b6032600454116107b9576106196040518060400160405280600781526020017f257320776f6e210000000000000000000000000000000000000000000000000081525033611152565b4760025411610675573373ffffffffffffffffffffffffffffffffffffffff167f14010cae8a240dc47291455df5acd88c4a97b2cc150be75a8035dcd7e4188d53426040516106689190611c1c565b60405180910390a26106c4565b3373ffffffffffffffffffffffffffffffffffffffff167f14010cae8a240dc47291455df5acd88c4a97b2cc150be75a8035dcd7e4188d53426040516106bb9190611c4a565b60405180910390a25b476002541115610709576040517f08c379a000000000000000000000000000000000000000000000000000000000815260040161070090611b51565b60405180910390fd5b60003373ffffffffffffffffffffffffffffffffffffffff16600254604051610731906119af565b60006040518083038185875af1925050503d806000811461076e576040519150601f19603f3d011682016040523d82523d6000602084013e610773565b606091505b50509050806107b7576040517f08c379a00000000000000000000000000000000000000000000000000000000081526004016107ae90611b71565b60405180910390fd5b505b3373ffffffffffffffffffffffffffffffffffffffff167f5f7e16dc676677766a70e9c5628aa6c54ddb8b6e5188e2ae1e1f17f1ffbea7164283604051610801929190611bec565b60405180910390a250565b6108146111ee565b73ffffffffffffffffffffffffffffffffffffffff16610832610912565b73ffffffffffffffffffffffffffffffffffffffff1614610888576040517f08c379a000000000000000000000000000000000000000000000000000000000815260040161087f90611b91565b60405180910390fd5b61089260006111f6565b565b6000600580549050905090565b60006108fa6040518060400160405280601d81526020017f636f6f6c646f776e20706572696f64206973202564207365636f6e6473000000815250600360009054906101000a900463ffffffff1663ffffffff16611017565b600360009054906101000a900463ffffffff16905090565b60008060009054906101000a900473ffffffffffffffffffffffffffffffffffffffff16905090565b6000426001600360009054906101000a900463ffffffff1661095d9190611dbb565b63ffffffff16600660003373ffffffffffffffffffffffffffffffffffffffff1673ffffffffffffffffffffffffffffffffffffffff168152602001908152602001600020546109ad9190611d65565b10156109bc5760009050610a39565b426001600360009054906101000a900463ffffffff166109dc9190611dbb565b63ffffffff16600660003373ffffffffffffffffffffffffffffffffffffffff1673ffffffffffffffffffffffffffffffffffffffff16815260200190815260200160002054610a2c9190611d65565b610a369190611df9565b90505b90565b6000610a7f6040518060400160405280601781526020017f5765206861766520256420746f74616c20776176657321000000000000000000815250600154611017565b600154905090565b60066020528060005260406000206000915090505481565b610aa76111ee565b73ffffffffffffffffffffffffffffffffffffffff16610ac5610912565b73ffffffffffffffffffffffffffffffffffffffff1614610b1b576040517f08c379a0000000000000000000000000000000000000000000000000000000008152600401610b1290611b91565b60405180910390fd5b80600360006101000a81548163ffffffff021916908363ffffffff160217905550610b6460405180606001604052806021815260200161204f602191398263ffffffff16611017565b50565b60606005805480602002602001604051908101604052809291908181526020016000905b82821015610caf57838290600052602060002090600302016040518060600160405290816000820160009054906101000a900473ffffffffffffffffffffffffffffffffffffffff1673ffffffffffffffffffffffffffffffffffffffff1673ffffffffffffffffffffffffffffffffffffffff168152602001600182018054610c1490611ec7565b80601f0160208091040260200160405190810160405280929190818152602001828054610c4090611ec7565b8015610c8d5780601f10610c6257610100808354040283529160200191610c8d565b820191906000526020600020905b815481529060010190602001808311610c7057829003601f168201915b5050505050815260200160028201548152505081526020019060010190610b8b565b50505050905090565b60008060646004544244610ccc9190611d65565b610cd69190611d65565b610ce09190611f15565b9050610ceb816112ba565b603281111591505090565b60008060648363ffffffff164244610d0e9190611d65565b610d189190611d65565b610d229190611f15565b9050610d2d816112ba565b6032811115915050919050565b6000426001600360009054906101000a900463ffffffff16610d5c9190611dbb565b63ffffffff16600660003373ffffffffffffffffffffffffffffffffffffffff1673ffffffffffffffffffffffffffffffffffffffff16815260200190815260200160002054610dac9190611d65565b1015610df957610df06040518060400160405280601681526020017f53656e646572206e6f7420696e20636f6f6c646f776e00000000000000000000815250610f7e565b60009050610e3c565b610e376040518060400160405280601f81526020017f53656e646572207374696c6c20696e20636f6f6c646f776e20706572696f6400815250610f7e565b600190505b90565b610e476111ee565b73ffffffffffffffffffffffffffffffffffffffff16610e65610912565b73ffffffffffffffffffffffffffffffffffffffff1614610ebb576040517f08c379a0000000000000000000000000000000000000000000000000000000008152600401610eb290611b91565b60405180910390fd5b600073ffffffffffffffffffffffffffffffffffffffff168173ffffffffffffffffffffffffffffffffffffffff161415610f2b576040517f08c379a0000000000000000000000000000000000000000000000000000000008152600401610f2290611b31565b60405180910390fd5b610f34816111f6565b50565b6000600660003373ffffffffffffffffffffffffffffffffffffffff1673ffffffffffffffffffffffffffffffffffffffff16815260200190815260200160002054905090565b61101481604051602401610f929190611a6a565b6040516020818303038152906040527f41304fac000000000000000000000000000000000000000000000000000000007bffffffffffffffffffffffffffffffffffffffffffffffffffffffff19166020820180517bffffffffffffffffffffffffffffffffffffffffffffffffffffffff8381831617835250505050611353565b50565b6110af828260405160240161102d929190611b01565b6040516020818303038152906040527f9710a9d0000000000000000000000000000000000000000000000000000000007bffffffffffffffffffffffffffffffffffffffffffffffffffffffff19166020820180517bffffffffffffffffffffffffffffffffffffffffffffffffffffffff8381831617835250505050611353565b5050565b61114d8383836040516024016110cb93929190611abc565b6040516020818303038152906040527fe0e9ad4f000000000000000000000000000000000000000000000000000000007bffffffffffffffffffffffffffffffffffffffffffffffffffffffff19166020820180517bffffffffffffffffffffffffffffffffffffffffffffffffffffffff8381831617835250505050611353565b505050565b6111ea8282604051602401611168929190611a8c565b6040516020818303038152906040527f319af333000000000000000000000000000000000000000000000000000000007bffffffffffffffffffffffffffffffffffffffffffffffffffffffff19166020820180517bffffffffffffffffffffffffffffffffffffffffffffffffffffffff8381831617835250505050611353565b5050565b600033905090565b60008060009054906101000a900473ffffffffffffffffffffffffffffffffffffffff169050816000806101000a81548173ffffffffffffffffffffffffffffffffffffffff021916908373ffffffffffffffffffffffffffffffffffffffff1602179055508173ffffffffffffffffffffffffffffffffffffffff168173ffffffffffffffffffffffffffffffffffffffff167f8be0079c531659141344cd1fd0a4f28419497f9722a3daafe3b4186f6b6457e060405160405180910390a35050565b611350816040516024016112ce9190611bd1565b6040516020818303038152906040527ff5b1bba9000000000000000000000000000000000000000000000000000000007bffffffffffffffffffffffffffffffffffffffffffffffffffffffff19166020820180517bffffffffffffffffffffffffffffffffffffffffffffffffffffffff8381831617835250505050611353565b50565b60008151905060006a636f6e736f6c652e6c6f679050602083016000808483855afa5050505050565b82805461138890611ec7565b90600052602060002090601f0160209004810192826113aa57600085556113f1565b82601f106113c357805160ff19168380011785556113f1565b828001600101855582156113f1579182015b828111156113f05782518255916020019190600101906113d5565b5b5090506113fe9190611402565b5090565b5b8082111561141b576000816000905550600101611403565b5090565b600061143261142d84611cc4565b611c93565b90508281526020810184848401111561144a57600080fd5b611455848285611e85565b509392505050565b60008135905061146c81612020565b92915050565b600082601f83011261148357600080fd5b813561149384826020860161141f565b91505092915050565b6000813590506114ab81612037565b92915050565b6000602082840312156114c357600080fd5b60006114d18482850161145d565b91505092915050565b6000602082840312156114ec57600080fd5b600082013567ffffffffffffffff81111561150657600080fd5b61151284828501611472565b91505092915050565b60006020828403121561152d57600080fd5b600061153b8482850161149c565b91505092915050565b60006115508383611904565b905092915050565b61156181611e2d565b82525050565b61157081611e2d565b82525050565b600061158182611d04565b61158b8185611d27565b93508360208202850161159d85611cf4565b8060005b858110156115d957848403895281516115ba8582611544565b94506115c583611d1a565b925060208a019950506001810190506115a1565b50829750879550505050505092915050565b6115f481611e3f565b82525050565b600061160582611d0f565b61160f8185611d43565b935061161f818560208601611e94565b61162881612002565b840191505092915050565b600061163e82611d0f565b6116488185611d54565b9350611658818560208601611e94565b61166181612002565b840191505092915050565b6000611679602683611d54565b91507f4f776e61626c653a206e6577206f776e657220697320746865207a65726f206160008301527f64647265737300000000000000000000000000000000000000000000000000006020830152604082019050919050565b60006116df603483611d54565b91507f547279696e6720746f207769746864726177206d6f7265206d6f6e657920746860008301527f616e2074686520636f6e7472616374206861732e0000000000000000000000006020830152604082019050919050565b6000611745602783611d54565b91507f4661696c656420746f207769746864726177206d6f6e65792066726f6d20636f60008301527f6e74726163742e000000000000000000000000000000000000000000000000006020830152604082019050919050565b60006117ab602083611d54565b91507f4f776e61626c653a2063616c6c6572206973206e6f7420746865206f776e65726000830152602082019050919050565b60006117eb600a83611d54565b91507f5072697a6520776f6e21000000000000000000000000000000000000000000006000830152602082019050919050565b600061182b602e83611d54565b91507f4e6f7420736f20666173742120576169742061206d696e757465206265666f7260008301527f6520747279696e6720616761696e0000000000000000000000000000000000006020830152604082019050919050565b6000611891600083611d38565b9150600082019050919050565b60006118ab602c83611d54565b91507f596f7520776f756c64206861766520776f6e20627574207072697a6520706f7460008301527f206861732072756e206f757400000000000000000000000000000000000000006020830152604082019050919050565b600060608301600083015161191c6000860182611558565b506020830151848203602086015261193482826115fa565b91505060408301516119496040860182611954565b508091505092915050565b61195d81611e6b565b82525050565b61196c81611e6b565b82525050565b61198361197e82611e6b565b611ef9565b82525050565b61199281611e75565b82525050565b6119a96119a482611e75565b611f03565b82525050565b60006119ba82611884565b9150819050919050565b60006119d08287611998565b6004820191506119e08286611972565b6020820191506119f08285611972565b602082019150611a008284611972565b60208201915081905095945050505050565b6000602082019050611a276000830184611567565b92915050565b60006020820190508181036000830152611a478184611576565b905092915050565b6000602082019050611a6460008301846115eb565b92915050565b60006020820190508181036000830152611a848184611633565b905092915050565b60006040820190508181036000830152611aa68185611633565b9050611ab56020830184611567565b9392505050565b60006060820190508181036000830152611ad68186611633565b9050611ae56020830185611567565b8181036040830152611af78184611633565b9050949350505050565b60006040820190508181036000830152611b1b8185611633565b9050611b2a6020830184611963565b9392505050565b60006020820190508181036000830152611b4a8161166c565b9050919050565b60006020820190508181036000830152611b6a816116d2565b9050919050565b60006020820190508181036000830152611b8a81611738565b9050919050565b60006020820190508181036000830152611baa8161179e565b9050919050565b60006020820190508181036000830152611bca8161181e565b9050919050565b6000602082019050611be66000830184611963565b92915050565b6000604082019050611c016000830185611963565b8181036020830152611c138184611633565b90509392505050565b6000604082019050611c316000830184611963565b8181036020830152611c42816117de565b905092915050565b6000604082019050611c5f6000830184611963565b8181036020830152611c708161189e565b905092915050565b6000602082019050611c8d6000830184611989565b92915050565b6000604051905081810181811067ffffffffffffffff82111715611cba57611cb9611fd3565b5b8060405250919050565b600067ffffffffffffffff821115611cdf57611cde611fd3565b5b601f19601f8301169050602081019050919050565b6000819050602082019050919050565b600081519050919050565b600081519050919050565b6000602082019050919050565b600082825260208201905092915050565b600081905092915050565b600082825260208201905092915050565b600082825260208201905092915050565b6000611d7082611e6b565b9150611d7b83611e6b565b9250827fffffffffffffffffffffffffffffffffffffffffffffffffffffffffffffffff03821115611db057611daf611f46565b5b828201905092915050565b6000611dc682611e75565b9150611dd183611e75565b92508163ffffffff0483118215151615611dee57611ded611f46565b5b828202905092915050565b6000611e0482611e6b565b9150611e0f83611e6b565b925082821015611e2257611e21611f46565b5b828203905092915050565b6000611e3882611e4b565b9050919050565b60008115159050919050565b600073ffffffffffffffffffffffffffffffffffffffff82169050919050565b6000819050919050565b600063ffffffff82169050919050565b82818337600083830152505050565b60005b83811015611eb2578082015181840152602081019050611e97565b83811115611ec1576000848401525b50505050565b60006002820490506001821680611edf57607f821691505b60208210811415611ef357611ef2611fa4565b5b50919050565b6000819050919050565b6000611f0e82612013565b9050919050565b6000611f2082611e6b565b9150611f2b83611e6b565b925082611f3b57611f3a611f75565b5b828206905092915050565b7f4e487b7100000000000000000000000000000000000000000000000000000000600052601160045260246000fd5b7f4e487b7100000000000000000000000000000000000000000000000000000000600052601260045260246000fd5b7f4e487b7100000000000000000000000000000000000000000000000000000000600052602260045260246000fd5b7f4e487b7100000000000000000000000000000000000000000000000000000000600052604160045260246000fd5b6000601f19601f8301169050919050565b60008160e01b9050919050565b61202981611e2d565b811461203457600080fd5b50565b61204081611e75565b811461204b57600080fd5b5056fe73657420636f6f6c646f776e20706572696f6420746f202564207365636f6e6473a26469706673582212204862ea282961ff9002b1d2900e814daf216bb3938d66ab54971e292947e768e664736f6c63430008000033",
  "linkReferences": {},
  "deployedLinkReferences": {}
}